:100A0700543A0054483A00544C3A004F563A48007A
:0A0A17004F563A4C0020202020002A
:030B1100010B32A3
:10046D00120ACB7FE87E03120A93E4FF12088B8FEA
:10047D00107F0112088B8F0AD3E510648094FD5014
:10048D0016C3E50A64809449400DD3E50A6480F8EB
:10049D00E5106480985006751014750A0F120AA89D
:1004AD007BFF7A0A79077D017F011209347BFF7A80
:1004BD000A790A7D017F021209347BFF7A0A790ECF
:1004CD007D097F02120934E510FB3395E0FA751CA6
:1004DD00037D047F02120774E50AFB3395E0FA757C
:1004ED001C037D0C7F02120774120A3A120B0B8F3C
:1004FD0011120ACB1208BB8F0F8E0E8D0D8C0CE4D2
:10050D00FFFEFDFCAB0FAA0EA90DA80C1201B450F5
:10051D001E7B2D7D037F01120AEEAF0FAE0EAD0DCA
:10052D00AC0C12022D8F178E168D158C1480157B29
:10053D002B7D037F01120AEE850F17850E16850D93
:10054D0015850C14AF17AE16AD15AC1412027CAB9D
:10055D0007AA06751C037D047F011209B17B2E7D50
:10056D00077F01120AEEE4FFFE7DC87C42AB17AA9D
:10057D0016A915A81412000E12027CE47B64FAF978
:10058D00F81203CD751C027D087F011209B1E5112A
:10059D00700302063AB4010E0510D3E51064809481
:1005AD00FD400375107DE511B402111510D3E50A58
:1005BD006480F8E51064809850020510E511B403CD
:1005CD0011050AC3E5106480F8E50A6480984002BD
:1005DD00150AE511B4040E150AC3E50A64809449A1
:1005ED005003750AC9E510FB3395E0FA751C037DC0
:1005FD00047F02120774E50AFB3395E0FA751C03BC
:10060D007D0C7F02120774E510FD3395E0FCE4FFCD
:10061D001209107F057E00120A93E50AFD3395E05D
:10062D00FC7F011209107F057E00120A93AC10ECBD
:10063D00120248AB0FAA0EA90DA80C1201B4600C42
:10064D00400AD2907BFF7A0A7912801BAC0AEC1219
:10065D000248AB0FAA0EA90DA80C1201B45012C27C
:10066D00907BFF7A0A79177D0D7F01120934020400
:10067D00F9C2907BFF7A0A791C7D0D7F0112093436
:03068D000204F96B
:03000B0002071CCD
:10071C00C0E0C0F0C083C082C0D075D000C000C0A3
:0D072C0001C002C003C004C005C006C00724
:10073900758A18758CFC0509E50970020508C394CA
:1007490014E508940040097508007509001207E7C7
:10075900D007D006D005D004D003D002D001D000F4
:0B076900D0D0D082D083D0F0D0E0329E
:100A9300EF1FAC0670011E4C600A7D027CEFDCFE8A
:040AA300DDFC80EC0A
:010AA700222C
:060ABC00C2A58F80D2A745
:080AC2007F027EEFDEFEDFFC87
:010ACA002209
:0A0AE400C2A6120ABCC2A7020AC291
:10095700CFCDCFCECCCE12033C7C007D0A12033C18
:04096700ED2430FF4C
:0A096B00D2A6120ABCC2A7020AC2FB
:100A5100AE07BE0104ED148006BE0209ED243F4439
:060A610080FF120AE422EE
:100AA8007F38120AE47F0C120AE47F06120AE47FF8
:040AB80001020AE449
:0A0AEE00AC03120A51AF0402096BB9
:060934008B188A19891AD4
:10093A00120A51E4FDAB18AA19A91A8D827583000F
:0C094A001202FDFF600612096B0D80E92F
:01095600227E
:0C0858007F0AEA24FFFDE434FFFC7E0070
:080864008E1F8F208C218D22D4
:10086C007F017E00E4FBEBC39522E5216480F874E4
:0E087C008098500AAC1FAD2012032A0B80E8B2
:01088A00224B
:0409B1008A1A8B1BF8
:1009B500120A51AA1CEAD39400400D120858AC1A29
:0809C500AD1B1209571A80ED69
:0109CD002207
:10077400120A51C3EA64809480400B7F2B12096BE8
:100784008A1D8B1E800E7F2D12096BC3E49BF51E00
:10079400E49AF51DAA1CEAD39400400D120858AC43
:0907A4001DAD1E1209571A80ED6B
:0107AD002229
:0407AE008A258B26E7
:1007B200120A51AA27EAD3940040297F1012085A3C
:1007C200AC25AD26CFCDCFCECCCE12033CEF540F0D
:1007D200FEC3940AEE5004243080022437FF12092B
:0407E2006B1A80D13D
:0107E60022F0
:040820008A2A8B2B6A
:10082400120A51AA2CEAD394004028EA24FFFDE4DA
:1008340034FFFC7F027E00120864AC2AAD2BCFCDBE
:10084400CFCECCCE12033CEF54012430FF12096BFF
:030854001A80D235
:01085700227E
:100910008F188C198D1A120B027FA01208E7120A89
:10092000D8AF181208E7120AD8AF1A1208E7120A4D
:04093000D8020003E6
:02088B008F18C4
:10088D00120B027FA01208E7120AD8AF181208E760
:10089D00120AD8120B027FA11208E7120AD8120908
:0D08AD00758F197F01120AF8120003AF19B0
:0108BA00221B
:090B0200D2A0D2A1C2A0C2A1221E
:07000300C2A0D2A1D2A0228D
:0208E700AD075B
:1008E900E4FB74807E00A803088006CEA2E713CE3D
:1008F90013D8F8FFEDF582EF558224FF92A0D2A11B
:06090900C2A10BBB08DCDB
:01090F0022C5
:10097500E4FFD2A0FED2A130A00D7480A8060880A5
:0D09850002C313D8FC4207C2A10EBE08E851
:010992002242
:0A0AF800EF24FF92A0D2A1C2A122B8
:0B0AD800D2A0D2A1A2A0E433FFC2A173
:010AE30022F0
:0D0ACB001209937FCC120A217F44020A21F8
:1008BB001209937FCC120A217FBE120A211209CE94
:1008CB008F181209CEEFFEE518FFFDAC06EC1202F5
:0B08DB0043E4FBFA798078411201171A
:0108E60022EF
:10099300C2AFD2B7C2B77FF7DFFED2B77F20DFFE89
:0D09A300A2B7E433FE7FF7DFFED2AFAF0650
:0109B0002224
:100A6700C2AFC2B77E04DEFEEF24FF92B77E18DE68
:050A7700FED2B7D2AF72
:010A7C002257
:1009EB00C2AFC2B77F02DFFED2B77F02DFFEA2B774
:0B09FB00E433FE7F18DFFED2AFAF0632
:010A060022CD
:020A2100AD071F
:100A2300E4FC7401A804088002C333D8FC5DFF1200
:060A33000A670CBC08EC90
:010A3900229A
:1009CE00E4FDFC1209EBEF600D7401A8040880022F
:0C09DE00C333D8FC42050CBC08E9AF058F
:0109EA0022EA
:050B0B00E4AF2FF52FFF
:010B100022C2
:100A7D00E4FF20B1010F20B0027F0220B2027F03FC
:050A8D0020B3027F040C
:010A92002241
:1007E700852D2E120A7D8F2DE52EB40107E52D707C
:1007F70003752F01E52EB40207E52D7003752F024F
:10080700E52EB40307E52D7003752F03E52EB40419
:0808170007E52D7003752F04A5
:01081F0022B6
:100A3A005389F0438901758A18758CFCC28DD28C52
:070A4A00D2A9D2AFC2B9220C
:10000E00EC4D6011E8497017ED33EC3304600DE4EC
:10001E00FCFFFEFD22E933E8330470F80202E81219
:10002E0002B358046009E4CC24815006285009021A
:10003E0002F22840030202EFC0E0EB4A7044B9809E
:10004E0006D0E0FB0202DEEF4E701CBD8008EBFF17
:10005E00EAFEE9FD80EBE98DF0A4FEE5F00200F783
:10006E00E9CDF9EAFEEBFFEF89F0A4FCE5F0CE89CD
:10007E00F0A42EFFE435F0CD89F0A42DFEE435F08A
:10008E008067EF4E7005BD80D780C3EF8BF0A4ACB8
:10009E00F0EE8BF0A42CFCE435F0F8EF8AF0A42CF3
:1000AE00E5F038FCE433CB8DF0A42CFCE5F03BF806
:1000BE00EE8AF0A42CFCE5F038F8E433CF89F0A4F6
:1000CE002CFCE5F038CF3400CE89F0A42FFFE5F0FC
:1000DE003EFEE433C98DF0A42EFEE5F039CD8AF054
:1000EE00A42FFFE5F03EFEE43DFD33D0E0FB5007CC
:1000FE000BBB000F0202F2EC2CFCEF33FFEE33FED3
:06010E00ED33FD0202CA00
:100114000202F2EC5D046005E8590470030202E88F
:100124001202B3580460F6EC4860F2EC7004FDFE71
:10013400FF22C860DB2481C85009C39860025006BE
:100144000202EF9850CAF582E9294B4A7005AB8246
:100154000202DE75F0007C1A7880C3EF9BEE9AED04
:1001640099400DC3EF9BFFEE9AFEED99FDE842F036
:10017400DC23ACF0D0E0FFD0E0FED0E0FDAB822089
:10018400E7101BEB60BAEC2CFCEF33FFEE33FEED13
:1001940033FD0202CAE803F830E705C0F075F00049
:1001A400EF2FFFEE33FEED33FD40B830E7C280AAF7
:1001B40074F8CC6480CCC86480C8F58204604FC3F2
:1001C400EB9FF5F0EA9E42F0E99D42F0E89C45F091
:1001D400603C501DE5825FFFE582D313CB5BCBF41B
:1001E4002B5582FB50280ABA002409B90020088044
:1001F4001DE5825BFBE582D313CF5FCFF4C3132FDE
:100204005582FF50090EBE00050DBD00010CC3EB65
:100214009FF5F0EA9E42F0E99D42F0E89C45F060CB
:0902240007CC4820E701B3EC22ED
:10022D00ED33EC33600A047003BD8004ECB2E7FCDF
:01023D00229E
:10023E0075F020800E75F010800575F0087D007E3B
:10024E00007F003392D530D50312045FEC3340109B
:10025E00EF33FFEE33FEED33FDEC33FCD5F0ED2244
:0E026E00E5F0247EA2D513CC92E7CDCEFF2280
:10027C00EDD2E7CD33EC3392D524814006E4FFFE7A
:10028C00FDFC22FCE4CFCECDCC24E0501174FF80D9
:10029C00EDC3CC13CCCD13CDCE13CECF13CF047076
:0702AC00F030D5DE02045F13
:1002B300E9D2E7C933E833F892D5EDD2E7CD33EC91
:0702C30033FC5002B2D5220A
:1002CA00EC30E7100FBF000C0EBE00080DBD000495
:1002DA000BEB6014A2D5EB13FCED92E7FD2274FF41
:1002EA00FCFDFEFF22E480F8A2D574FF13FC7D809A
:0302FA00E480EFAE
:0300000002069065
:0C069000787FE4F6D8FD75812F0206D7B4
:1002FD00BB010CE58229F582E5833AF583E02250B6
:10030D0006E92582F8E622BBFE06E92582F8E222FF
:0D031D00E58229F582E5833AF583E4932219
:10032A00EF8DF0A4A8F0CF8CF0A428CE8DF0A42EE7
:02033A00FE22A1
:10033C00BC000BBE0029EF8DF084FFADF022E4CCA5
:10034C00F875F008EF2FFFEE33FEEC33FCEE9DEC6E
:10035C00984005FCEE9DFE0FD5F0E9E4CEFD22EDB4
:10036C00F8F5F0EE8420D21CFEADF075F008EF2FFE
:10037C00FFED33FD4007985006D5F0F222C398FDEF
:05038C000FD5F0EA228C
:1003910075F008758200EF2FFFEE33FECD33CDCC23
:1003A10033CCC58233C5829BED9AEC99E5829840A6
:1003B1000CF582EE9BFEED9AFDEC99FC0FD5F0D683
:1003C100E4CEFBE4CDFAE4CCF9A88222B800C1B9AD
:1003D1000059BA002DEC8BF084CFCECDFCE5F0CBEB
:1003E100F97818EF2FFFEE33FEED33FDEC33FCEB24
:1003F10033FB10D703994004EB99FB0FD8E5E4F9DF
:10040100FA227818EF2FFFEE33FEED33FDEC33FCCB
:10041100C933C910D7059BE99A4007EC9BFCE99ABF
:10042100F90FD8E0E4C9FAE4CCFB2275F010EF2F04
:10043100FFEE33FEED33FDCC33CCC833C810D70704
:100441009BEC9AE899400AED9BFDEC9AFCE899F83F
:0E0451000FD5F0DAE4CDFBE4CCFAE4C8F922D2
:0E045F00C3E49FFFE49EFEE49DFDE49CFC22AE
:10069C0002046DE493A3F8E493A34003F68001F203
:1006AC0008DFF48029E493A3F85407240CC8C3335F
:1006BC00C4540F4420C8834004F456800146F6DF2E
:1006CC00E4800B0102040810204080900B11E47EA2
:1006DC00019360BCA3FF543F30E509541FFEE49323
:1006EC00A360010ECF54C025E060A840B8E493A3EA
:1006FC00FAE493A3F8E493A3C8C582C8CAC583CA15
:10070C00F0A3C8C582C8CAC583CADFE9DEE780BECC
:010B140000E0
:00000001FF
